{
  "data": {
    "bytecode": {
      "linkReferences": {},
      "object": "6080604052348015600e575f5ffd5b50610d8c8061001c5f395ff3fe60806040526004361061004d575f3560e01c80630178fe3f146101bb5780632d10fa28146101f75780637355a42414610221578063f0ba84401461024b578063fb218f5f14610287576100f9565b366100f9575f6040518060400160405280600c81526020017f455448207265636569766564000000000000000000000000000000000000000081525090505f81908060018154018082558091505060019003905f5260205f20015f9091909190915090816100bb91906107fa565b507fad832f1d7241efec42e3f79ff0a7de17fe4d267bb6dd7d00176739f9a83ff6ba8133346040516100ef9392919061097d565b60405180910390a1005b5f5f36905011156101b9575f5f368080601f0160208091040260200160405190810160405280939291908181526020018383808284375f81840152601f19601f8201169050808301925050505050505090505f81908060018154018082558091505060019003905f5260205f20015f90919091909150908161017b91906107fa565b507fad832f1d7241efec42e3f79ff0a7de17fe4d267bb6dd7d00176739f9a83ff6ba8133346040516101af9392919061097d565b60405180910390a1505b005b3480156101c6575f5ffd5b506101e160048036038101906101dc91906109f4565b6102a3565b6040516101ee9190610a1f565b60405180910390f35b348015610202575f5ffd5b5061020b610394565b6040516102189190610b42565b60405180910390f35b34801561022c575f5ffd5b50610235610467565b6040516102429190610b62565b60405180910390f35b348015610256575f5ffd5b50610271600480360381019061026c91906109f4565b610472565b60405161027e9190610a1f565b60405180910390f35b6102a1600480360381019061029c9190610c7a565b610517565b005b60605f8054905082106102eb576040517f08c379a00000000000000000000000000000000000000000000000000000000081526004016102e290610d0b565b60405180910390fd5b5f82815481106102fe576102fd610d29565b5b905f5260205f2001805461031190610621565b80601f016020809104026020016040519081016040528092919081815260200182805461033d90610621565b80156103885780601f1061035f57610100808354040283529160200191610388565b820191905f5260205f20905b81548152906001019060200180831161036b57829003601f168201915b50505050509050919050565b60605f805480602002602001604051908101604052809291908181526020015f905b8282101561045e578382905f5260205f200180546103d390610621565b80601f01602080910402602001604051908101604052809291908181526020018280546103ff90610621565b801561044a5780601f106104215761010080835404028352916020019161044a565b820191905f5260205f20905b81548152906001019060200180831161042d57829003601f168201915b5050505050815260200190600101906103b6565b50505050905090565b5f5f80549050905090565b5f8181548110610480575f80fd5b905f5260205f20015f91509050805461049890610621565b80601f01602080910402602001604051908101604052809291908181526020018280546104c490610621565b801561050f5780601f106104e65761010080835404028352916020019161050f565b820191905f5260205f20905b8154815290600101906020018083116104f257829003601f168201915b505050505081565b5f81908060018154018082558091505060019003905f5260205f20015f90919091909150908161054791906107fa565b507fcf34ef537ac33ee1ac626ca1587a0a7e8e51561e5514f8cb36afa1c5102b3bab816040516105779190610a1f565b60405180910390a17fad832f1d7241efec42e3f79ff0a7de17fe4d267bb6dd7d00176739f9a83ff6ba8133346040516105b29392919061097d565b60405180910390a150565b5f81519050919050565b7f4e487b71000000000000000000000000000000000000000000000000000000005f52604160045260245ffd5b7f4e487b71000000000000000000000000000000000000000000000000000000005f52602260045260245ffd5b5f600282049050600182168061063857607f821691505b60208210810361064b5761064a6105f4565b5b50919050565b5f819050815f5260205f209050919050565b5f6020601f8301049050919050565b5f82821b905092915050565b5f600883026106ad7fffffffffffffffffffffffffffffffffffffffffffffffffffffffffffffffff82610672565b6106b78683610672565b95508019841693508086168417925050509392505050565b5f819050919050565b5f819050919050565b5f6106fb6106f66106f1846106cf565b6106d8565b6106cf565b9050919050565b5f819050919050565b610714836106e1565b61072861072082610702565b84845461067e565b825550505050565b5f5f905090565b61073f610730565b61074a81848461070b565b505050565b5b8181101561076d576107625f82610737565b600181019050610750565b5050565b601f8211156107b25761078381610651565b61078c84610663565b8101602085101561079b578190505b6107af6107a785610663565b83018261074f565b50505b505050565b5f82821c905092915050565b5f6107d25f19846008026107b7565b1980831691505092915050565b5f6107ea83836107c3565b9150826002028217905092915050565b610803826105bd565b67ffffffffffffffff81111561081c5761081b6105c7565b5b6108268254610621565b610831828285610771565b5f60209050601f831160018114610862575f8415610850578287015190505b61085a85826107df565b8655506108c1565b601f19841661087086610651565b5f5b8281101561089757848901518255600182019150602085019450602081019050610872565b868310156108b457848901516108b0601f8916826107c3565b8355505b6001600288020188555050505b505050505050565b5f82825260208201905092915050565b8281835e5f83830152505050565b5f601f19601f8301169050919050565b5f610901826105bd565b61090b81856108c9565b935061091b8185602086016108d9565b610924816108e7565b840191505092915050565b5f73ffffffffffffffffffffffffffffffffffffffff82169050919050565b5f6109588261092f565b9050919050565b6109688161094e565b82525050565b610977816106cf565b82525050565b5f6060820190508181035f83015261099581866108f7565b90506109a4602083018561095f565b6109b1604083018461096e565b949350505050565b5f604051905090565b5f5ffd5b5f5ffd5b6109d3816106cf565b81146109dd575f5ffd5b50565b5f813590506109ee816109ca565b92915050565b5f60208284031215610a0957610a086109c2565b5b5f610a16848285016109e0565b91505092915050565b5f6020820190508181035f830152610a3781846108f7565b905092915050565b5f81519050919050565b5f82825260208201905092915050565b5f819050602082019050919050565b5f82825260208201905092915050565b5f610a82826105bd565b610a8c8185610a68565b9350610a9c8185602086016108d9565b610aa5816108e7565b840191505092915050565b5f610abb8383610a78565b905092915050565b5f602082019050919050565b5f610ad982610a3f565b610ae38185610a49565b935083602082028501610af585610a59565b805f5b85811015610b305784840389528151610b118582610ab0565b9450610b1c83610ac3565b925060208a01995050600181019050610af8565b50829750879550505050505092915050565b5f6020820190508181035f830152610b5a8184610acf565b905092915050565b5f602082019050610b755f83018461096e565b92915050565b5f5ffd5b5f5ffd5b610b8c826108e7565b810181811067ffffffffffffffff82111715610bab57610baa6105c7565b5b80604052505050565b5f610bbd6109b9565b9050610bc98282610b83565b919050565b5f67ffffffffffffffff821115610be857610be76105c7565b5b610bf1826108e7565b9050602081019050919050565b828183375f83830152505050565b5f610c1e610c1984610bce565b610bb4565b905082815260208101848484011115610c3a57610c39610b7f565b5b610c45848285610bfe565b509392505050565b5f82601f830112610c6157610c60610b7b565b5b8135610c71848260208601610c0c565b91505092915050565b5f60208284031215610c8f57610c8e6109c2565b5b5f82013567ffffffffffffffff811115610cac57610cab6109c6565b5b610cb884828501610c4d565b91505092915050565b7f496e646578206f7574206f6620626f756e6473000000000000000000000000005f82015250565b5f610cf56013836108c9565b9150610d0082610cc1565b602082019050919050565b5f6020820190508181035f830152610d2281610ce9565b9050919050565b7f4e487b71000000000000000000000000000000000000000000000000000000005f52603260045260245ffdfea2646970667358221220494de19dff63572a0ce41fb7d4cbbfe76e5dff7395fe3cd2b95ca570e1ca085364736f6c634300081e0033",
      "opcodes": "PUSH1 0x80 PUSH1 0x40 MSTORE CALLVALUE DUP1 ISZERO PUSH1 0xE JUMPI PUSH0 PUSH0 REVERT JUMPDEST POP PUSH2 0xD8C DUP1 PUSH2 0x1C PUSH0 CODECOPY PUSH0 RETURN INVALID PUSH1 0x80 PUSH1 0x40 MSTORE PUSH1 0x4 CALLDATASIZE LT PUSH2 0x4D JUMPI PUSH0 CALLDATALOAD PUSH1 0xE0 SHR DUP1 PUSH4 0x178FE3F EQ PUSH2 0x1BB JUMPI DUP1 PUSH4 0x2D10FA28 EQ PUSH2 0x1F7 JUMPI DUP1 PUSH4 0x7355A424 EQ PUSH2 0x221 JUMPI DUP1 PUSH4 0xF0BA8440 EQ PUSH2 0x24B JUMPI DUP1 PUSH4 0xFB218F5F EQ PUSH2 0x287 JUMPI PUSH2 0xF9 JUMP JUMPDEST CALLDATASIZE PUSH2 0xF9 JUMPI PUSH0 PUSH1 0x40 MLOAD DUP1 PUSH1 0x40 ADD PUSH1 0x40 MSTORE DUP1 PUSH1 0xC DUP2 MSTORE PUSH1 0x20 ADD PUSH32 0x4554482072656365697665640000000000000000000000000000000000000000 DUP2 MSTORE POP SWAP1 POP PUSH0 DUP2 SWAP1 DUP1 PUSH1 0x1 DUP2 SLOAD ADD DUP1 DUP3 SSTORE DUP1 SWAP2 POP POP PUSH1 0x1 SWAP1 SUB SWAP1 PUSH0 MSTORE PUSH1 0x20 PUSH0 KECCAK256 ADD PUSH0 SWAP1 SWAP2 SWAP1 SWAP2 SWAP1 SWAP2 POP SWAP1 DUP2 PUSH2 0xBB SWAP2 SWAP1 PUSH2 0x7FA JUMP JUMPDEST POP PUSH32 0xAD832F1D7241EFEC42E3F79FF0A7DE17FE4D267BB6DD7D00176739F9A83FF6BA DUP2 CALLER CALLVALUE PUSH1 0x40 MLOAD PUSH2 0xEF SWAP4 SWAP3 SWAP2 SWAP1 PUSH2 0x97D JUMP JUMPDEST PUSH1 0x40 MLOAD DUP1 SWAP2 SUB SWAP1 LOG1 STOP JUMPDEST PUSH0 PUSH0 CALLDATASIZE SWAP1 POP GT ISZERO PUSH2 0x1B9 JUMPI PUSH0 PUSH0 CALLDATASIZE DUP1 DUP1 PUSH1 0x1F ADD PUSH1 0x20 DUP1 SWAP2 DIV MUL PUSH1 0x20 ADD PUSH1 0x40 MLOAD SWAP1 DUP2 ADD PUSH1 0x40 MSTORE DUP1 SWAP4 SWAP3 SWAP2 SWAP1 DUP2 DUP2 MSTORE PUSH1 0x20 ADD DUP4 DUP4 DUP1 DUP3 DUP5 CALLDATACOPY PUSH0 DUP2 DUP5 ADD MSTORE PUSH1 0x1F NOT PUSH1 0x1F DUP3 ADD AND SWAP1 POP DUP1 DUP4 ADD SWAP3 POP POP POP POP POP POP POP SWAP1 POP PUSH0 DUP2 SWAP1 DUP1 PUSH1 0x1 DUP2 SLOAD ADD DUP1 DUP3 SSTORE DUP1 SWAP2 POP POP PUSH1 0x1 SWAP1 SUB SWAP1 PUSH0 MSTORE PUSH1 0x20 PUSH0 KECCAK256 ADD PUSH0 SWAP1 SWAP2 SWAP1 SWAP2 SWAP1 SWAP2 POP SWAP1 DUP2 PUSH2 0x17B SWAP2 SWAP1 PUSH2 0x7FA JUMP JUMPDEST POP PUSH32 0xAD832F1D7241EFEC42E3F79FF0A7DE17FE4D267BB6DD7D00176739F9A83FF6BA DUP2 CALLER CALLVALUE PUSH1 0x40 MLOAD PUSH2 0x1AF SWAP4 SWAP3 SWAP2 SWAP1 PUSH2 0x97D JUMP JUMPDEST PUSH1 0x40 MLOAD DUP1 SWAP2 SUB SWAP1 LOG1 POP JUMPDEST STOP JUMPDEST CALLVALUE DUP1 ISZERO PUSH2 0x1C6 JUMPI PUSH0 PUSH0 REVERT JUMPDEST POP PUSH2 0x1E1 PUSH1 0x4 DUP1 CALLDATASIZE SUB DUP2 ADD SWAP1 PUSH2 0x1DC SWAP2 SWAP1 PUSH2 0x9F4 JUMP JUMPDEST PUSH2 0x2A3 JUMP JUMPDEST PUSH1 0x40 MLOAD PUSH2 0x1EE SWAP2 SWAP1 PUSH2 0xA1F JUMP JUMPDEST PUSH1 0x40 MLOAD DUP1 SWAP2 SUB SWAP1 RETURN JUMPDEST CALLVALUE DUP1 ISZERO PUSH2 0x202 JUMPI PUSH0 PUSH0 REVERT JUMPDEST POP PUSH2 0x20B PUSH2 0x394 JUMP JUMPDEST PUSH1 0x40 MLOAD PUSH2 0x218 SWAP2 SWAP1 PUSH2 0xB42 JUMP JUMPDEST PUSH1 0x40 MLOAD DUP1 SWAP2 SUB SWAP1 RETURN JUMPDEST CALLVALUE DUP1 ISZERO PUSH2 0x22C JUMPI PUSH0 PUSH0 REVERT JUMPDEST POP PUSH2 0x235 PUSH2 0x467 JUMP JUMPDEST PUSH1 0x40 MLOAD PUSH2 0x242 SWAP2 SWAP1 PUSH2 0xB62 JUMP JUMPDEST PUSH1 0x40 MLOAD DUP1 SWAP2 SUB SWAP1 RETURN JUMPDEST CALLVALUE DUP1 ISZERO PUSH2 0x256 JUMPI PUSH0 PUSH0 REVERT JUMPDEST POP PUSH2 0x271 PUSH1 0x4 DUP1 CALLDATASIZE SUB DUP2 ADD SWAP1 PUSH2 0x26C SWAP2 SWAP1 PUSH2 0x9F4 JUMP JUMPDEST PUSH2 0x472 JUMP JUMPDEST PUSH1 0x40 MLOAD PUSH2 0x27E SWAP2 SWAP1 PUSH2 0xA1F JUMP JUMPDEST PUSH1 0x40 MLOAD DUP1 SWAP2 SUB SWAP1 RETURN JUMPDEST PUSH2 0x2A1 PUSH1 0x4 DUP1 CALLDATASIZE SUB DUP2 ADD SWAP1 PUSH2 0x29C SWAP2 SWAP1 PUSH2 0xC7A JUMP JUMPDEST PUSH2 0x517 JUMP JUMPDEST STOP JUMPDEST PUSH1 0x60 PUSH0 DUP1 SLOAD SWAP1 POP DUP3 LT PUSH2 0x2EB JUMPI PUSH1 0x40 MLOAD PUSH32 0x8C379A000000000000000000000000000000000000000000000000000000000 DUP2 MSTORE PUSH1 0x4 ADD PUSH2 0x2E2 SWAP1 PUSH2 0xD0B JUMP JUMPDEST PUSH1 0x40 MLOAD DUP1 SWAP2 SUB SWAP1 REVERT JUMPDEST PUSH0 DUP3 DUP2 SLOAD DUP2 LT PUSH2 0x2FE JUMPI PUSH2 0x2FD PUSH2 0xD29 JUMP JUMPDEST JUMPDEST SWAP1 PUSH0 MSTORE PUSH1 0x20 PUSH0 KECCAK256 ADD DUP1 SLOAD PUSH2 0x311 SWAP1 PUSH2 0x621 JUMP JUMPDEST DUP1 PUSH1 0x1F ADD PUSH1 0x20 DUP1 SWAP2 DIV MUL PUSH1 0x20 ADD PUSH1 0x40 MLOAD SWAP1 DUP2 ADD PUSH1 0x40 MSTORE DUP1 SWAP3 SWAP2 SWAP1 DUP2 DUP2 MSTORE PUSH1 0x20 ADD DUP3 DUP1 SLOAD PUSH2 0x33D SWAP1 PUSH2 0x621 JUMP JUMPDEST DUP1 ISZERO PUSH2 0x388 JUMPI DUP1 PUSH1 0x1F LT PUSH2 0x35F JUMPI PUSH2 0x100 DUP1 DUP4 SLOAD DIV MUL DUP4 MSTORE SWAP2 PUSH1 0x20 ADD SWAP2 PUSH2 0x388 JUMP JUMPDEST DUP3 ADD SWAP2 SWAP1 PUSH0 MSTORE PUSH1 0x20 PUSH0 KECCAK256 SWAP1 JUMPDEST DUP2 SLOAD DUP2 MSTORE SWAP1 PUSH1 0x1 ADD SWAP1 PUSH1 0x20 ADD DUP1 DUP4 GT PUSH2 0x36B JUMPI DUP3 SWAP1 SUB PUSH1 0x1F AND DUP3 ADD SWAP2 JUMPDEST POP POP POP POP POP SWAP1 POP SWAP2 SWAP1 POP JUMP JUMPDEST PUSH1 0x60 PUSH0 DUP1 SLOAD DUP1 PUSH1 0x20 MUL PUSH1 0x20 ADD PUSH1 0x40 MLOAD SWAP1 DUP2 ADD PUSH1 0x40 MSTORE DUP1 SWAP3 SWAP2 SWAP1 DUP2 DUP2 MSTORE PUSH1 0x20 ADD PUSH0 SWAP1 JUMPDEST DUP3 DUP3 LT ISZERO PUSH2 0x45E JUMPI DUP4 DUP3 SWAP1 PUSH0 MSTORE PUSH1 0x20 PUSH0 KECCAK256 ADD DUP1 SLOAD PUSH2 0x3D3 SWAP1 PUSH2 0x621 JUMP JUMPDEST DUP1 PUSH1 0x1F ADD PUSH1 0x20 DUP1 SWAP2 DIV MUL PUSH1 0x20 ADD PUSH1 0x40 MLOAD SWAP1 DUP2 ADD PUSH1 0x40 MSTORE DUP1 SWAP3 SWAP2 SWAP1 DUP2 DUP2 MSTORE PUSH1 0x20 ADD DUP3 DUP1 SLOAD PUSH2 0x3FF SWAP1 PUSH2 0x621 JUMP JUMPDEST DUP1 ISZERO PUSH2 0x44A JUMPI DUP1 PUSH1 0x1F LT PUSH2 0x421 JUMPI PUSH2 0x100 DUP1 DUP4 SLOAD DIV MUL DUP4 MSTORE SWAP2 PUSH1 0x20 ADD SWAP2 PUSH2 0x44A JUMP JUMPDEST DUP3 ADD SWAP2 SWAP1 PUSH0 MSTORE PUSH1 0x20 PUSH0 KECCAK256 SWAP1 JUMPDEST DUP2 SLOAD DUP2 MSTORE SWAP1 PUSH1 0x1 ADD SWAP1 PUSH1 0x20 ADD DUP1 DUP4 GT PUSH2 0x42D JUMPI DUP3 SWAP1 SUB PUSH1 0x1F AND DUP3 ADD SWAP2 JUMPDEST POP POP POP POP POP DUP2 MSTORE PUSH1 0x20 ADD SWAP1 PUSH1 0x1 ADD SWAP1 PUSH2 0x3B6 JUMP JUMPDEST POP POP POP POP SWAP1 POP SWAP1 JUMP JUMPDEST PUSH0 PUSH0 DUP1 SLOAD SWAP1 POP SWAP1 POP SWAP1 JUMP JUMPDEST PUSH0 DUP2 DUP2 SLOAD DUP2 LT PUSH2 0x480 JUMPI PUSH0 DUP1 REVERT JUMPDEST SWAP1 PUSH0 MSTORE PUSH1 0x20 PUSH0 KECCAK256 ADD PUSH0 SWAP2 POP SWAP1 POP DUP1 SLOAD PUSH2 0x498 SWAP1 PUSH2 0x621 JUMP JUMPDEST DUP1 PUSH1 0x1F ADD PUSH1 0x20 DUP1 SWAP2 DIV MUL PUSH1 0x20 ADD PUSH1 0x40 MLOAD SWAP1 DUP2 ADD PUSH1 0x40 MSTORE DUP1 SWAP3 SWAP2 SWAP1 DUP2 DUP2 MSTORE PUSH1 0x20 ADD DUP3 DUP1 SLOAD PUSH2 0x4C4 SWAP1 PUSH2 0x621 JUMP JUMPDEST DUP1 ISZERO PUSH2 0x50F JUMPI DUP1 PUSH1 0x1F LT PUSH2 0x4E6 JUMPI PUSH2 0x100 DUP1 DUP4 SLOAD DIV MUL DUP4 MSTORE SWAP2 PUSH1 0x20 ADD SWAP2 PUSH2 0x50F JUMP JUMPDEST DUP3 ADD SWAP2 SWAP1 PUSH0 MSTORE PUSH1 0x20 PUSH0 KECCAK256 SWAP1 JUMPDEST DUP2 SLOAD DUP2 MSTORE SWAP1 PUSH1 0x1 ADD SWAP1 PUSH1 0x20 ADD DUP1 DUP4 GT PUSH2 0x4F2 JUMPI DUP3 SWAP1 SUB PUSH1 0x1F AND DUP3 ADD SWAP2 JUMPDEST POP POP POP POP POP DUP2 JUMP JUMPDEST PUSH0 DUP2 SWAP1 DUP1 PUSH1 0x1 DUP2 SLOAD ADD DUP1 DUP3 SSTORE DUP1 SWAP2 POP POP PUSH1 0x1 SWAP1 SUB SWAP1 PUSH0 MSTORE PUSH1 0x20 PUSH0 KECCAK256 ADD PUSH0 SWAP1 SWAP2 SWAP1 SWAP2 SWAP1 SWAP2 POP SWAP1 DUP2 PUSH2 0x547 SWAP2 SWAP1 PUSH2 0x7FA JUMP JUMPDEST POP PUSH32 0xCF34EF537AC33EE1AC626CA1587A0A7E8E51561E5514F8CB36AFA1C5102B3BAB DUP2 PUSH1 0x40 MLOAD PUSH2 0x577 SWAP2 SWAP1 PUSH2 0xA1F JUMP JUMPDEST PUSH1 0x40 MLOAD DUP1 SWAP2 SUB SWAP1 LOG1 PUSH32 0xAD832F1D7241EFEC42E3F79FF0A7DE17FE4D267BB6DD7D00176739F9A83FF6BA DUP2 CALLER CALLVALUE PUSH1 0x40 MLOAD PUSH2 0x5B2 SWAP4 SWAP3 SWAP2 SWAP1 PUSH2 0x97D JUMP JUMPDEST PUSH1 0x40 MLOAD DUP1 SWAP2 SUB SWAP1 LOG1 POP JUMP JUMPDEST PUSH0 DUP2 MLOAD SWAP1 POP SWAP2 SWAP1 POP JUMP JUMPDEST PUSH32 0x4E487B7100000000000000000000000000000000000000000000000000000000 PUSH0 MSTORE PUSH1 0x41 PUSH1 0x4 MSTORE PUSH1 0x24 PUSH0 REVERT JUMPDEST PUSH32 0x4E487B7100000000000000000000000000000000000000000000000000000000 PUSH0 MSTORE PUSH1 0x22 PUSH1 0x4 MSTORE PUSH1 0x24 PUSH0 REVERT JUMPDEST PUSH0 PUSH1 0x2 DUP3 DIV SWAP1 POP PUSH1 0x1 DUP3 AND DUP1 PUSH2 0x638 JUMPI PUSH1 0x7F DUP3 AND SWAP2 POP JUMPDEST PUSH1 0x20 DUP3 LT DUP2 SUB PUSH2 0x64B JUMPI PUSH2 0x64A PUSH2 0x5F4 JUMP JUMPDEST JUMPDEST POP SWAP2 SWAP1 POP JUMP JUMPDEST PUSH0 DUP2 SWAP1 POP DUP2 PUSH0 MSTORE PUSH1 0x20 PUSH0 KECCAK256 SWAP1 POP SWAP2 SWAP1 POP JUMP JUMPDEST PUSH0 PUSH1 0x20 PUSH1 0x1F DUP4 ADD DIV SWAP1 POP SWAP2 SWAP1 POP JUMP JUMPDEST PUSH0 DUP3 DUP3 SHL SWAP1 POP SWAP3 SWAP2 POP POP JUMP JUMPDEST PUSH0 PUSH1 0x8 DUP4 MUL PUSH2 0x6AD PUSH32 0xFFFFFFFFFFFFFFFFFFFFFFFFFFFFFFFFFFFFFFFFFFFFFFFFFFFFFFFFFFFFFFFF DUP3 PUSH2 0x672 JUMP JUMPDEST PUSH2 0x6B7 DUP7 DUP4 PUSH2 0x672 JUMP JUMPDEST SWAP6 POP DUP1 NOT DUP5 AND SWAP4 POP DUP1 DUP7 AND DUP5 OR SWAP3 POP POP POP SWAP4 SWAP3 POP POP POP JUMP JUMPDEST PUSH0 DUP2 SWAP1 POP SWAP2 SWAP1 POP JUMP JUMPDEST PUSH0 DUP2 SWAP1 POP SWAP2 SWAP1 POP JUMP JUMPDEST PUSH0 PUSH2 0x6FB PUSH2 0x6F6 PUSH2 0x6F1 DUP5 PUSH2 0x6CF JUMP JUMPDEST PUSH2 0x6D8 JUMP JUMPDEST PUSH2 0x6CF JUMP JUMPDEST SWAP1 POP SWAP2 SWAP1 POP JUMP JUMPDEST PUSH0 DUP2 SWAP1 POP SWAP2 SWAP1 POP JUMP JUMPDEST PUSH2 0x714 DUP4 PUSH2 0x6E1 JUMP JUMPDEST PUSH2 0x728 PUSH2 0x720 DUP3 PUSH2 0x702 JUMP JUMPDEST DUP5 DUP5 SLOAD PUSH2 0x67E JUMP JUMPDEST DUP3 SSTORE POP POP POP POP JUMP JUMPDEST PUSH0 PUSH0 SWAP1 POP SWAP1 JUMP JUMPDEST PUSH2 0x73F PUSH2 0x730 JUMP JUMPDEST PUSH2 0x74A DUP2 DUP5 DUP5 PUSH2 0x70B JUMP JUMPDEST POP POP POP JUMP JUMPDEST JUMPDEST DUP2 DUP2 LT ISZERO PUSH2 0x76D JUMPI PUSH2 0x762 PUSH0 DUP3 PUSH2 0x737 JUMP JUMPDEST PUSH1 0x1 DUP2 ADD SWAP1 POP PUSH2 0x750 JUMP JUMPDEST POP POP JUMP JUMPDEST PUSH1 0x1F DUP3 GT ISZERO PUSH2 0x7B2 JUMPI PUSH2 0x783 DUP2 PUSH2 0x651 JUMP JUMPDEST PUSH2 0x78C DUP5 PUSH2 0x663 JUMP JUMPDEST DUP2 ADD PUSH1 0x20 DUP6 LT ISZERO PUSH2 0x79B JUMPI DUP2 SWAP1 POP JUMPDEST PUSH2 0x7AF PUSH2 0x7A7 DUP6 PUSH2 0x663 JUMP JUMPDEST DUP4 ADD DUP3 PUSH2 0x74F JUMP JUMPDEST POP POP JUMPDEST POP POP POP JUMP JUMPDEST PUSH0 DUP3 DUP3 SHR SWAP1 POP SWAP3 SWAP2 POP POP JUMP JUMPDEST PUSH0 PUSH2 0x7D2 PUSH0 NOT DUP5 PUSH1 0x8 MUL PUSH2 0x7B7 JUMP JUMPDEST NOT DUP1 DUP4 AND SWAP2 POP POP SWAP3 SWAP2 POP POP JUMP JUMPDEST PUSH0 PUSH2 0x7EA DUP4 DUP4 PUSH2 0x7C3 JUMP JUMPDEST SWAP2 POP DUP3 PUSH1 0x2 MUL DUP3 OR SWAP1 POP SWAP3 SWAP2 POP POP JUMP JUMPDEST PUSH2 0x803 DUP3 PUSH2 0x5BD JUMP JUMPDEST PUSH8 0xFFFFFFFFFFFFFFFF DUP2 GT ISZERO PUSH2 0x81C JUMPI PUSH2 0x81B PUSH2 0x5C7 JUMP JUMPDEST JUMPDEST PUSH2 0x826 DUP3 SLOAD PUSH2 0x621 JUMP JUMPDEST PUSH2 0x831 DUP3 DUP3 DUP6 PUSH2 0x771 JUMP JUMPDEST PUSH0 PUSH1 0x20 SWAP1 POP PUSH1 0x1F DUP4 GT PUSH1 0x1 DUP2 EQ PUSH2 0x862 JUMPI PUSH0 DUP5 ISZERO PUSH2 0x850 JUMPI DUP3 DUP8 ADD MLOAD SWAP1 POP JUMPDEST PUSH2 0x85A DUP6 DUP3 PUSH2 0x7DF JUMP JUMPDEST DUP7 SSTORE POP PUSH2 0x8C1 JUMP JUMPDEST PUSH1 0x1F NOT DUP5 AND PUSH2 0x870 DUP7 PUSH2 0x651 JUMP JUMPDEST PUSH0 JUMPDEST DUP3 DUP2 LT ISZERO PUSH2 0x897 JUMPI DUP5 DUP10 ADD MLOAD DUP3 SSTORE PUSH1 0x1 DUP3 ADD SWAP2 POP PUSH1 0x20 DUP6 ADD SWAP5 POP PUSH1 0x20 DUP2 ADD SWAP1 POP PUSH2 0x872 JUMP JUMPDEST DUP7 DUP4 LT ISZERO PUSH2 0x8B4 JUMPI DUP5 DUP10 ADD MLOAD PUSH2 0x8B0 PUSH1 0x1F DUP10 AND DUP3 PUSH2 0x7C3 JUMP JUMPDEST DUP4 SSTORE POP JUMPDEST PUSH1 0x1 PUSH1 0x2 DUP9 MUL ADD DUP9 SSTORE POP POP POP JUMPDEST POP POP POP POP POP POP JUMP JUMPDEST PUSH0 DUP3 DUP3 MSTORE PUSH1 0x20 DUP3 ADD SWAP1 POP SWAP3 SWAP2 POP POP JUMP JUMPDEST DUP3 DUP2 DUP4 MCOPY PUSH0 DUP4 DUP4 ADD MSTORE POP POP POP JUMP JUMPDEST PUSH0 PUSH1 0x1F NOT PUSH1 0x1F DUP4 ADD AND SWAP1 POP SWAP2 SWAP1 POP JUMP JUMPDEST PUSH0 PUSH2 0x901 DUP3 PUSH2 0x5BD JUMP JUMPDEST PUSH2 0x90B DUP2 DUP6 PUSH2 0x8C9 JUMP JUMPDEST SWAP4 POP PUSH2 0x91B DUP2 DUP6 PUSH1 0x20 DUP7 ADD PUSH2 0x8D9 JUMP JUMPDEST PUSH2 0x924 DUP2 PUSH2 0x8E7 JUMP JUMPDEST DUP5 ADD SWAP2 POP POP SWAP3 SWAP2 POP POP JUMP JUMPDEST PUSH0 PUSH20 0xFFFFFFFFFFFFFFFFFFFFFFFFFFFFFFFFFFFFFFFF DUP3 AND SWAP1 POP SWAP2 SWAP1 POP JUMP JUMPDEST PUSH0 PUSH2 0x958 DUP3 PUSH2 0x92F JUMP JUMPDEST SWAP1 POP SWAP2 SWAP1 POP JUMP JUMPDEST PUSH2 0x968 DUP2 PUSH2 0x94E JUMP JUMPDEST DUP3 MSTORE POP POP JUMP JUMPDEST PUSH2 0x977 DUP2 PUSH2 0x6CF JUMP JUMPDEST DUP3 MSTORE POP POP JUMP JUMPDEST PUSH0 PUSH1 0x60 DUP3 ADD SWAP1 POP DUP2 DUP2 SUB PUSH0 DUP4 ADD MSTORE PUSH2 0x995 DUP2 DUP7 PUSH2 0x8F7 JUMP JUMPDEST SWAP1 POP PUSH2 0x9A4 PUSH1 0x20 DUP4 ADD DUP6 PUSH2 0x95F JUMP JUMPDEST PUSH2 0x9B1 PUSH1 0x40 DUP4 ADD DUP5 PUSH2 0x96E JUMP JUMPDEST SWAP5 SWAP4 POP POP POP POP JUMP JUMPDEST PUSH0 PUSH1 0x40 MLOAD SWAP1 POP SWAP1 JUMP JUMPDEST PUSH0 PUSH0 REVERT JUMPDEST PUSH0 PUSH0 REVERT JUMPDEST PUSH2 0x9D3 DUP2 PUSH2 0x6CF JUMP JUMPDEST DUP2 EQ PUSH2 0x9DD JUMPI PUSH0 PUSH0 REVERT JUMPDEST POP JUMP JUMPDEST PUSH0 DUP2 CALLDATALOAD SWAP1 POP PUSH2 0x9EE DUP2 PUSH2 0x9CA JUMP JUMPDEST SWAP3 SWAP2 POP POP JUMP JUMPDEST PUSH0 PUSH1 0x20 DUP3 DUP5 SUB SLT ISZERO PUSH2 0xA09 JUMPI PUSH2 0xA08 PUSH2 0x9C2 JUMP JUMPDEST JUMPDEST PUSH0 PUSH2 0xA16 DUP5 DUP3 DUP6 ADD PUSH2 0x9E0 JUMP JUMPDEST SWAP2 POP POP SWAP3 SWAP2 POP POP JUMP JUMPDEST PUSH0 PUSH1 0x20 DUP3 ADD SWAP1 POP DUP2 DUP2 SUB PUSH0 DUP4 ADD MSTORE PUSH2 0xA37 DUP2 DUP5 PUSH2 0x8F7 JUMP JUMPDEST SWAP1 POP SWAP3 SWAP2 POP POP JUMP JUMPDEST PUSH0 DUP2 MLOAD SWAP1 POP SWAP2 SWAP1 POP JUMP JUMPDEST PUSH0 DUP3 DUP3 MSTORE PUSH1 0x20 DUP3 ADD SWAP1 POP SWAP3 SWAP2 POP POP JUMP JUMPDEST PUSH0 DUP2 SWAP1 POP PUSH1 0x20 DUP3 ADD SWAP1 POP SWAP2 SWAP1 POP JUMP JUMPDEST PUSH0 DUP3 DUP3 MSTORE PUSH1 0x20 DUP3 ADD SWAP1 POP SWAP3 SWAP2 POP POP JUMP JUMPDEST PUSH0 PUSH2 0xA82 DUP3 PUSH2 0x5BD JUMP JUMPDEST PUSH2 0xA8C DUP2 DUP6 PUSH2 0xA68 JUMP JUMPDEST SWAP4 POP PUSH2 0xA9C DUP2 DUP6 PUSH1 0x20 DUP7 ADD PUSH2 0x8D9 JUMP JUMPDEST PUSH2 0xAA5 DUP2 PUSH2 0x8E7 JUMP JUMPDEST DUP5 ADD SWAP2 POP POP SWAP3 SWAP2 POP POP JUMP JUMPDEST PUSH0 PUSH2 0xABB DUP4 DUP4 PUSH2 0xA78 JUMP JUMPDEST SWAP1 POP SWAP3 SWAP2 POP POP JUMP JUMPDEST PUSH0 PUSH1 0x20 DUP3 ADD SWAP1 POP SWAP2 SWAP1 POP JUMP JUMPDEST PUSH0 PUSH2 0xAD9 DUP3 PUSH2 0xA3F JUMP JUMPDEST PUSH2 0xAE3 DUP2 DUP6 PUSH2 0xA49 JUMP JUMPDEST SWAP4 POP DUP4 PUSH1 0x20 DUP3 MUL DUP6 ADD PUSH2 0xAF5 DUP6 PUSH2 0xA59 JUMP JUMPDEST DUP1 PUSH0 JUMPDEST DUP6 DUP2 LT ISZERO PUSH2 0xB30 JUMPI DUP5 DUP5 SUB DUP10 MSTORE DUP2 MLOAD PUSH2 0xB11 DUP6 DUP3 PUSH2 0xAB0 JUMP JUMPDEST SWAP5 POP PUSH2 0xB1C DUP4 PUSH2 0xAC3 JUMP JUMPDEST SWAP3 POP PUSH1 0x20 DUP11 ADD SWAP10 POP POP PUSH1 0x1 DUP2 ADD SWAP1 POP PUSH2 0xAF8 JUMP JUMPDEST POP DUP3 SWAP8 POP DUP8 SWAP6 POP POP POP POP POP POP SWAP3 SWAP2 POP POP JUMP JUMPDEST PUSH0 PUSH1 0x20 DUP3 ADD SWAP1 POP DUP2 DUP2 SUB PUSH0 DUP4 ADD MSTORE PUSH2 0xB5A DUP2 DUP5 PUSH2 0xACF JUMP JUMPDEST SWAP1 POP SWAP3 SWAP2 POP POP JUMP JUMPDEST PUSH0 PUSH1 0x20 DUP3 ADD SWAP1 POP PUSH2 0xB75 PUSH0 DUP4 ADD DUP5 PUSH2 0x96E JUMP JUMPDEST SWAP3 SWAP2 POP POP JUMP JUMPDEST PUSH0 PUSH0 REVERT JUMPDEST PUSH0 PUSH0 REVERT JUMPDEST PUSH2 0xB8C DUP3 PUSH2 0x8E7 JUMP JUMPDEST DUP2 ADD DUP2 DUP2 LT PUSH8 0xFFFFFFFFFFFFFFFF DUP3 GT OR ISZERO PUSH2 0xBAB JUMPI PUSH2 0xBAA PUSH2 0x5C7 JUMP JUMPDEST JUMPDEST DUP1 PUSH1 0x40 MSTORE POP POP POP JUMP JUMPDEST PUSH0 PUSH2 0xBBD PUSH2 0x9B9 JUMP JUMPDEST SWAP1 POP PUSH2 0xBC9 DUP3 DUP3 PUSH2 0xB83 JUMP JUMPDEST SWAP2 SWAP1 POP JUMP JUMPDEST PUSH0 PUSH8 0xFFFFFFFFFFFFFFFF DUP3 GT ISZERO PUSH2 0xBE8 JUMPI PUSH2 0xBE7 PUSH2 0x5C7 JUMP JUMPDEST JUMPDEST PUSH2 0xBF1 DUP3 PUSH2 0x8E7 JUMP JUMPDEST SWAP1 POP PUSH1 0x20 DUP2 ADD SWAP1 POP SWAP2 SWAP1 POP JUMP JUMPDEST DUP3 DUP2 DUP4 CALLDATACOPY PUSH0 DUP4 DUP4 ADD MSTORE POP POP POP JUMP JUMPDEST PUSH0 PUSH2 0xC1E PUSH2 0xC19 DUP5 PUSH2 0xBCE JUMP JUMPDEST PUSH2 0xBB4 JUMP JUMPDEST SWAP1 POP DUP3 DUP2 MSTORE PUSH1 0x20 DUP2 ADD DUP5 DUP5 DUP5 ADD GT ISZERO PUSH2 0xC3A JUMPI PUSH2 0xC39 PUSH2 0xB7F JUMP JUMPDEST JUMPDEST PUSH2 0xC45 DUP5 DUP3 DUP6 PUSH2 0xBFE JUMP JUMPDEST POP SWAP4 SWAP3 POP POP POP JUMP JUMPDEST PUSH0 DUP3 PUSH1 0x1F DUP4 ADD SLT PUSH2 0xC61 JUMPI PUSH2 0xC60 PUSH2 0xB7B JUMP JUMPDEST JUMPDEST DUP2 CALLDATALOAD PUSH2 0xC71 DUP5 DUP3 PUSH1 0x20 DUP7 ADD PUSH2 0xC0C JUMP JUMPDEST SWAP2 POP POP SWAP3 SWAP2 POP POP JUMP JUMPDEST PUSH0 PUSH1 0x20 DUP3 DUP5 SUB SLT ISZERO PUSH2 0xC8F JUMPI PUSH2 0xC8E PUSH2 0x9C2 JUMP JUMPDEST JUMPDEST PUSH0 DUP3 ADD CALLDATALOAD PUSH8 0xFFFFFFFFFFFFFFFF DUP2 GT ISZERO PUSH2 0xCAC JUMPI PUSH2 0xCAB PUSH2 0x9C6 JUMP JUMPDEST JUMPDEST PUSH2 0xCB8 DUP5 DUP3 DUP6 ADD PUSH2 0xC4D JUMP JUMPDEST SWAP2 POP POP SWAP3 SWAP2 POP POP JUMP JUMPDEST PUSH32 0x496E646578206F7574206F6620626F756E647300000000000000000000000000 PUSH0 DUP3 ADD MSTORE POP JUMP JUMPDEST PUSH0 PUSH2 0xCF5 PUSH1 0x13 DUP4 PUSH2 0x8C9 JUMP JUMPDEST SWAP2 POP PUSH2 0xD00 DUP3 PUSH2 0xCC1 JUMP JUMPDEST PUSH1 0x20 DUP3 ADD SWAP1 POP SWAP2 SWAP1 POP JUMP JUMPDEST PUSH0 PUSH1 0x20 DUP3 ADD SWAP1 POP DUP2 DUP2 SUB PUSH0 DUP4 ADD MSTORE PUSH2 0xD22 DUP2 PUSH2 0xCE9 JUMP JUMPDEST SWAP1 POP SWAP2 SWAP1 POP JUMP JUMPDEST PUSH32 0x4E487B7100000000000000000000000000000000000000000000000000000000 PUSH0 MSTORE PUSH1 0x32 PUSH1 0x4 MSTORE PUSH1 0x24 PUSH0 REVERT INVALID LOG2 PUSH5 0x6970667358 0x22 SLT KECCAK256 BLOBHASH 0x4D RJUMPI 0x9DFF PUSH4 0x572A0CE4 0x1F 0xB7 0xD4 0xCB 0xBF SWAPN 0x6E TSTORE SELFDESTRUCT PUSH20 0x95FE3CD2B95CA570E1CA085364736F6C63430008 0x1E STOP CALLER "
    },
    "gasEstimates": {
      "creation": {
        "codeDepositCost": "693600",
        "executionCost": "726",
        "totalCost": "694326"
      },
      "external": {
        "": "infinite",
        "data(uint256)": "infinite",
        "getAllData()": "infinite",
        "getData(uint256)": "infinite",
        "getDataCount()": "2461",
        "storeData(string)": "infinite"
      }
    },
    "methodIdentifiers": {
      "data(uint256)": "f0ba8440",
      "getAllData()": "2d10fa28",
      "getData(uint256)": "0178fe3f",
      "getDataCount()": "7355a424",
      "storeData(string)": "fb218f5f"
    }
  },
  "abi": [
    {
      "anonymous": false,
      "inputs": [
        {
          "indexed": false,
          "internalType": "string",
          "name": "data",
          "type": "string"
        },
        {
          "indexed": false,
          "internalType": "address",
          "name": "sender",
          "type": "address"
        },
        {
          "indexed": false,
          "internalType": "uint256",
          "name": "value",
          "type": "uint256"
        }
      ],
      "name": "DataReceived",
      "type": "event"
    },
    {
      "anonymous": false,
      "inputs": [
        {
          "indexed": false,
          "internalType": "string",
          "name": "data",
          "type": "string"
        }
      ],
      "name": "Log",
      "type": "event"
    },
    {
      "stateMutability": "payable",
      "type": "fallback"
    },
    {
      "inputs": [
        {
          "internalType": "uint256",
          "name": "",
          "type": "uint256"
        }
      ],
      "name": "data",
      "outputs": [
        {
          "internalType": "string",
          "name": "",
          "type": "string"
        }
      ],
      "stateMutability": "view",
      "type": "function"
    },
    {
      "inputs": [],
      "name": "getAllData",
      "outputs": [
        {
          "internalType": "string[]",
          "name": "",
          "type": "string[]"
        }
      ],
      "stateMutability": "view",
      "type": "function"
    },
    {
      "inputs": [
        {
          "internalType": "uint256",
          "name": "index",
          "type": "uint256"
        }
      ],
      "name": "getData",
      "outputs": [
        {
          "internalType": "string",
          "name": "",
          "type": "string"
        }
      ],
      "stateMutability": "view",
      "type": "function"
    },
    {
      "inputs": [],
      "name": "getDataCount",
      "outputs": [
        {
          "internalType": "uint256",
          "name": "",
          "type": "uint256"
        }
      ],
      "stateMutability": "view",
      "type": "function"
    },
    {
      "inputs": [
        {
          "internalType": "string",
          "name": "_data",
          "type": "string"
        }
      ],
      "name": "storeData",
      "outputs": [],
      "stateMutability": "payable",
      "type": "function"
    },
    {
      "stateMutability": "payable",
      "type": "receive"
    }
  ],
  "CONTRACT_ADDRESS": "0x753e2c96bb4814bfa63572d828fd5160975f8f86"
}